{
  "_format": "hh-sol-artifact-1",
  "contractName": "Cryptic",
  "sourceName": "contracts/Cryptic.sol",
  "abi": [
    {
      "inputs": [
        {
          "internalType": "address",
          "name": "_contractAddress",
          "type": "address"
        },
        {
          "internalType": "uint256",
          "name": "_totalTicekts",
          "type": "uint256"
        },
        {
          "internalType": "uint256",
          "name": "_ticketPrice",
          "type": "uint256"
        }
      ],
      "stateMutability": "nonpayable",
      "type": "constructor"
    },
    {
      "inputs": [],
      "name": "AllTicketsSold",
      "type": "error"
    },
    {
      "inputs": [
        {
          "internalType": "uint256",
          "name": "maxTixkets",
          "type": "uint256"
        },
        {
          "internalType": "uint256",
          "name": "availableTickets",
          "type": "uint256"
        },
        {
          "internalType": "uint256",
          "name": "orderedTickets",
          "type": "uint256"
        }
      ],
      "name": "ExceedingMaxTickets",
      "type": "error"
    },
    {
      "inputs": [
        {
          "internalType": "uint256",
          "name": "totalTickets",
          "type": "uint256"
        },
        {
          "internalType": "uint256",
          "name": "ticketsSold",
          "type": "uint256"
        }
      ],
      "name": "NotAllTicketsAreSold",
      "type": "error"
    },
    {
      "inputs": [
        {
          "internalType": "uint256",
          "name": "atomsNeededToBuy",
          "type": "uint256"
        },
        {
          "internalType": "uint256",
          "name": "AllowedAtoms",
          "type": "uint256"
        }
      ],
      "name": "NotAllowedToBuyTicketsPleaseAllowMeToUseAtoms",
      "type": "error"
    },
    {
      "inputs": [
        {
          "internalType": "uint256",
          "name": "playerBalance",
          "type": "uint256"
        },
        {
          "internalType": "uint256",
          "name": "requiredElectrons",
          "type": "uint256"
        }
      ],
      "name": "NotEnoughFunds",
      "type": "error"
    },
    {
      "inputs": [],
      "name": "YouAreNotOwner",
      "type": "error"
    },
    {
      "anonymous": false,
      "inputs": [],
      "name": "AllTicketsAreSold",
      "type": "event"
    },
    {
      "anonymous": false,
      "inputs": [
        {
          "indexed": false,
          "internalType": "address",
          "name": "winner",
          "type": "address"
        }
      ],
      "name": "NewWinnerAnnounced",
      "type": "event"
    },
    {
      "anonymous": false,
      "inputs": [
        {
          "indexed": false,
          "internalType": "address",
          "name": "player",
          "type": "address"
        },
        {
          "indexed": false,
          "internalType": "uint256",
          "name": "ticketId",
          "type": "uint256"
        }
      ],
      "name": "TicketSold",
      "type": "event"
    },
    {
      "inputs": [],
      "name": "AwardWinner",
      "outputs": [],
      "stateMutability": "nonpayable",
      "type": "function"
    },
    {
      "inputs": [
        {
          "internalType": "uint16",
          "name": "_tickets",
          "type": "uint16"
        }
      ],
      "name": "BuyTickets",
      "outputs": [],
      "stateMutability": "nonpayable",
      "type": "function"
    },
    {
      "inputs": [],
      "name": "GetAtom",
      "outputs": [
        {
          "internalType": "address",
          "name": "",
          "type": "address"
        }
      ],
      "stateMutability": "view",
      "type": "function"
    },
    {
      "inputs": [],
      "name": "GetOwner",
      "outputs": [
        {
          "internalType": "address",
          "name": "",
          "type": "address"
        }
      ],
      "stateMutability": "view",
      "type": "function"
    },
    {
      "inputs": [],
      "name": "GetPlayersCount",
      "outputs": [
        {
          "internalType": "uint256",
          "name": "",
          "type": "uint256"
        }
      ],
      "stateMutability": "view",
      "type": "function"
    },
    {
      "inputs": [],
      "name": "GetPrice",
      "outputs": [
        {
          "internalType": "uint256",
          "name": "",
          "type": "uint256"
        }
      ],
      "stateMutability": "view",
      "type": "function"
    },
    {
      "inputs": [],
      "name": "GetTotalTickets",
      "outputs": [
        {
          "internalType": "uint256",
          "name": "",
          "type": "uint256"
        }
      ],
      "stateMutability": "view",
      "type": "function"
    },
    {
      "inputs": [],
      "name": "GetWinners",
      "outputs": [
        {
          "internalType": "address[]",
          "name": "",
          "type": "address[]"
        }
      ],
      "stateMutability": "view",
      "type": "function"
    },
    {
      "inputs": [],
      "name": "TicketsSold",
      "outputs": [
        {
          "internalType": "uint256",
          "name": "",
          "type": "uint256"
        }
      ],
      "stateMutability": "view",
      "type": "function"
    }
  ],
  "bytecode": "0x6101006040523480156200001257600080fd5b5060405162001af738038062001af7833981810160405281019062000038919062000166565b8273ffffffffffffffffffffffffffffffffffffffff1660808173ffffffffffffffffffffffffffffffffffffffff16815250503373ffffffffffffffffffffffffffffffffffffffff1660a08173ffffffffffffffffffffffffffffffffffffffff16815250508160c081815250508060e081815250506001600081905550505050620001c2565b600080fd5b600073ffffffffffffffffffffffffffffffffffffffff82169050919050565b6000620000f382620000c6565b9050919050565b6200010581620000e6565b81146200011157600080fd5b50565b6000815190506200012581620000fa565b92915050565b6000819050919050565b62000140816200012b565b81146200014c57600080fd5b50565b600081519050620001608162000135565b92915050565b600080600060608486031215620001825762000181620000c1565b5b6000620001928682870162000114565b9350506020620001a5868287016200014f565b9250506040620001b8868287016200014f565b9150509250925092565b60805160a05160c05160e05161185a6200029d6000396000818161031401528181610370015281816105d0015281816108b4015281816108f80152610fa901526000818161023f01528181610268015281816102da0152818161033501528181610391015281816105f8015281816106d401528181610730015281816107750152818161079b01528181610f0c01526110f3015260008181610194015281816101ba01526104a30152600081816103c8015281816104670152818161062001528181610811015281816109750152610f68015261185a6000f3fe608060405234801561001057600080fd5b50600436106100935760003560e01c806382926db71161006657806382926db7146100fc578063d214326f1461011a578063e639dd5514610138578063eec3ed2b14610154578063fc706a3c1461017257610093565b80630ae50a39146100985780630bc4b172146100b65780636d90164e146100c0578063705f8484146100de575b600080fd5b6100a0610190565b6040516100ad91906111ea565b60405180910390f35b6100be6101b8565b005b6100c86105cc565b6040516100d5919061121e565b60405180910390f35b6100e66105f4565b6040516100f3919061121e565b60405180910390f35b61010461061c565b60405161011191906111ea565b60405180910390f35b610122610644565b60405161012f91906112f7565b60405180910390f35b610152600480360381019061014d9190611358565b6106d2565b005b61015c610b9c565b604051610169919061121e565b60405180910390f35b61017a610ba9565b604051610187919061121e565b60405180910390f35b60007f0000000000000000000000000000000000000000000000000000000000000000905090565b7f000000000000000000000000000000000000000000000000000000000000000073ffffffffffffffffffffffffffffffffffffffff163373ffffffffffffffffffffffffffffffffffffffff161461023d576040517fd57632ce00000000000000000000000000000000000000000000000000000000815260040160405180910390fd5b7f0000000000000000000000000000000000000000000000000000000000000000600054116102d3577f0000000000000000000000000000000000000000000000000000000000000000600160005461029691906113b4565b6040517ffcfed8e30000000000000000000000000000000000000000000000000000000081526004016102ca9291906113e8565b60405180910390fd5b60006102fe7f0000000000000000000000000000000000000000000000000000000000000000610bbf565b9050600061030b82610c0d565b905060006103b67f00000000000000000000000000000000000000000000000000000000000000007f000000000000000000000000000000000000000000000000000000000000000061035e9190611411565b6103689190611411565b9050600060327f00000000000000000000000000000000000000000000000000000000000000007f00000000000000000000000000000000000000000000000000000000000000006103ba9190611411565b6103c49190611411565b90507f000000000000000000000000000000000000000000000000000000000000000073ffffffffffffffffffffffffffffffffffffffff1663a9059cbb84846040518363ffffffff1660e01b8152600401610421929190611453565b6020604051808303816000875af1158015610440573d6000803e3d6000fd5b505050506040513d601f19601f8201168201806040525081019061046491906114b4565b507f000000000000000000000000000000000000000000000000000000000000000073ffffffffffffffffffffffffffffffffffffffff1663a9059cbb7f0000000000000000000000000000000000000000000000000000000000000000836040518363ffffffff1660e01b81526004016104e0929190611453565b6020604051808303816000875af11580156104ff573d6000803e3d6000fd5b505050506040513d601f19601f8201168201806040525081019061052391906114b4565b506003839080600181540180825580915050600190039060005260206000200160009091909190916101000a81548173ffffffffffffffffffffffffffffffffffffffff021916908373ffffffffffffffffffffffffffffffffffffffff1602179055507f40639c5f419fbb3f458e3053e7df465d9560a58210b6523ac799c9443c385217836040516105b691906111ea565b60405180910390a16105c6610de1565b50505050565b60007f0000000000000000000000000000000000000000000000000000000000000000905090565b60007f0000000000000000000000000000000000000000000000000000000000000000905090565b60007f0000000000000000000000000000000000000000000000000000000000000000905090565b606060038054806020026020016040519081016040528092919081815260200182805480156106c857602002820191906000526020600020905b8160009054906101000a900473ffffffffffffffffffffffffffffffffffffffff1673ffffffffffffffffffffffffffffffffffffffff168152602001906001019080831161067e575b5050505050905090565b7f0000000000000000000000000000000000000000000000000000000000000000600054111561072e576040517fe48e5abe00000000000000000000000000000000000000000000000000000000815260040160405180910390fd5b7f00000000000000000000000000000000000000000000000000000000000000008161ffff16600160005461076391906113b4565b61076d91906114e1565b111561080d577f000000000000000000000000000000000000000000000000000000000000000060016000547f00000000000000000000000000000000000000000000000000000000000000006107c491906113b4565b6107ce91906114e1565b826040517f85240e6700000000000000000000000000000000000000000000000000000000815260040161080493929190611550565b60405180910390fd5b60007f000000000000000000000000000000000000000000000000000000000000000073ffffffffffffffffffffffffffffffffffffffff1663dd62ed3e33306040518363ffffffff1660e01b815260040161086a929190611587565b602060405180830381865afa158015610887573d6000803e3d6000fd5b505050506040513d601f19601f820116820180604052508101906108ab91906115dc565b905060006103e87f00000000000000000000000000000000000000000000000000000000000000008461ffff166108e29190611411565b6108ec9190611411565b905080821015610971577f00000000000000000000000000000000000000000000000000000000000000008361ffff166109269190611411565b6103e8826109349190611638565b6040517fcb6754530000000000000000000000000000000000000000000000000000000081526004016109689291906113e8565b60405180910390fd5b60007f000000000000000000000000000000000000000000000000000000000000000073ffffffffffffffffffffffffffffffffffffffff166370a08231336040518263ffffffff1660e01b81526004016109cc91906111ea565b602060405180830381865afa1580156109e9573d6000803e3d6000fd5b505050506040513d601f19601f82011682018060405250810190610a0d91906115dc565b905081811015610a565780826040517f8c905368000000000000000000000000000000000000000000000000000000008152600401610a4d9291906113e8565b60405180910390fd5b600160003373ffffffffffffffffffffffffffffffffffffffff1673ffffffffffffffffffffffffffffffffffffffff16815260200190815260200160002060000160009054906101000a900460ff16610b68576002339080600181540180825580915050600190039060005260206000200160009091909190916101000a81548173ffffffffffffffffffffffffffffffffffffffff021916908373ffffffffffffffffffffffffffffffffffffffff16021790555060018060003373ffffffffffffffffffffffffffffffffffffffff1673ffffffffffffffffffffffffffffffffffffffff16815260200190815260200160002060000160006101000a81548160ff0219169083151502179055505b60005b8461ffff168160ff161015610b9557610b82610f0a565b8080610b8d90611676565b915050610b6b565b5050505050565b6000600280549050905090565b60006001600054610bba91906113b4565b905090565b6000600182424433604051602001610bd993929190611708565b6040516020818303038152906040528051906020012060001c610bfc9190611745565b610c0691906114e1565b9050919050565b6000806000905060005b600280549050811015610d4c57600060028281548110610c3a57610c39611776565b5b9060005260206000200160009054906101000a900473ffffffffffffffffffffffffffffffffffffffff1690506000600160008373ffffffffffffffffffffffffffffffffffffffff1673ffffffffffffffffffffffffffffffffffffffff168152602001908152602001600020600101905060005b8180549050811015610cfb5786828281548110610cd057610ccf611776565b5b906000526020600020015403610ce857829450610cfb565b8080610cf3906117a5565b915050610cb0565b50600073ffffffffffffffffffffffffffffffffffffffff168473ffffffffffffffffffffffffffffffffffffffff1614610d37575050610d4c565b50508080610d44906117a5565b915050610c17565b50600073ffffffffffffffffffffffffffffffffffffffff168173ffffffffffffffffffffffffffffffffffffffff1603610dd7576002808054905084610d939190611638565b81548110610da457610da3611776565b5b9060005260206000200160009054906101000a900473ffffffffffffffffffffffffffffffffffffffff16915050610ddc565b809150505b919050565b60005b600280549050811015610ef157600060028281548110610e0757610e06611776565b5b9060005260206000200160009054906101000a900473ffffffffffffffffffffffffffffffffffffffff1690506000600160008373ffffffffffffffffffffffffffffffffffffffff1673ffffffffffffffffffffffffffffffffffffffff16815260200190815260200160002060000160006101000a81548160ff021916908315150217905550600160008273ffffffffffffffffffffffffffffffffffffffff1673ffffffffffffffffffffffffffffffffffffffff1681526020019081526020016000206001016000610edd919061114a565b508080610ee9906117a5565b915050610de4565b5060026000610f00919061116b565b6001600081905550565b7f00000000000000000000000000000000000000000000000000000000000000006000541115610f66576040517fe48e5abe00000000000000000000000000000000000000000000000000000000815260040160405180910390fd5b7f000000000000000000000000000000000000000000000000000000000000000073ffffffffffffffffffffffffffffffffffffffff166323b872dd33306103e87f0000000000000000000000000000000000000000000000000000000000000000610fd29190611411565b6040518463ffffffff1660e01b8152600401610ff0939291906117ed565b6020604051808303816000875af115801561100f573d6000803e3d6000fd5b505050506040513d601f19601f8201168201806040525081019061103391906114b4565b50600160003373ffffffffffffffffffffffffffffffffffffffff1673ffffffffffffffffffffffffffffffffffffffff16815260200190815260200160002060010160005490806001815401808255809150506001900390600052602060002001600090919091909150557f8ef92257fbc070823c8bb4051ff3a58b831946d893fbb1bfd9bc77b87ff77d09336000546040516110d2929190611453565b60405180910390a16000808154809291906110ec906117a5565b91905055507f00000000000000000000000000000000000000000000000000000000000000006000541115611148577f9e70eb2d00fb4b5c0ab01df2bbdabc72dd54cfd074f847021dacfdc98c3ccf9960405160405180910390a15b565b5080546000825590600052602060002090810190611168919061118c565b50565b5080546000825590600052602060002090810190611189919061118c565b50565b5b808211156111a557600081600090555060010161118d565b5090565b600073ffffffffffffffffffffffffffffffffffffffff82169050919050565b60006111d4826111a9565b9050919050565b6111e4816111c9565b82525050565b60006020820190506111ff60008301846111db565b92915050565b6000819050919050565b61121881611205565b82525050565b6000602082019050611233600083018461120f565b92915050565b600081519050919050565b600082825260208201905092915050565b6000819050602082019050919050565b61126e816111c9565b82525050565b60006112808383611265565b60208301905092915050565b6000602082019050919050565b60006112a482611239565b6112ae8185611244565b93506112b983611255565b8060005b838110156112ea5781516112d18882611274565b97506112dc8361128c565b9250506001810190506112bd565b5085935050505092915050565b600060208201905081810360008301526113118184611299565b905092915050565b600080fd5b600061ffff82169050919050565b6113358161131e565b811461134057600080fd5b50565b6000813590506113528161132c565b92915050565b60006020828403121561136e5761136d611319565b5b600061137c84828501611343565b91505092915050565b7f4e487b7100000000000000000000000000000000000000000000000000000000600052601160045260246000fd5b60006113bf82611205565b91506113ca83611205565b92508282039050818111156113e2576113e1611385565b5b92915050565b60006040820190506113fd600083018561120f565b61140a602083018461120f565b9392505050565b600061141c82611205565b915061142783611205565b925082820261143581611205565b9150828204841483151761144c5761144b611385565b5b5092915050565b600060408201905061146860008301856111db565b611475602083018461120f565b9392505050565b60008115159050919050565b6114918161147c565b811461149c57600080fd5b50565b6000815190506114ae81611488565b92915050565b6000602082840312156114ca576114c9611319565b5b60006114d88482850161149f565b91505092915050565b60006114ec82611205565b91506114f783611205565b925082820190508082111561150f5761150e611385565b5b92915050565b6000819050919050565b600061153a6115356115308461131e565b611515565b611205565b9050919050565b61154a8161151f565b82525050565b6000606082019050611565600083018661120f565b611572602083018561120f565b61157f6040830184611541565b949350505050565b600060408201905061159c60008301856111db565b6115a960208301846111db565b9392505050565b6115b981611205565b81146115c457600080fd5b50565b6000815190506115d6816115b0565b92915050565b6000602082840312156115f2576115f1611319565b5b6000611600848285016115c7565b91505092915050565b7f4e487b7100000000000000000000000000000000000000000000000000000000600052601260045260246000fd5b600061164382611205565b915061164e83611205565b92508261165e5761165d611609565b5b828204905092915050565b600060ff82169050919050565b600061168182611669565b915060ff820361169457611693611385565b5b600182019050919050565b6000819050919050565b6116ba6116b582611205565b61169f565b82525050565b60008160601b9050919050565b60006116d8826116c0565b9050919050565b60006116ea826116cd565b9050919050565b6117026116fd826111c9565b6116df565b82525050565b600061171482866116a9565b60208201915061172482856116a9565b60208201915061173482846116f1565b601482019150819050949350505050565b600061175082611205565b915061175b83611205565b92508261176b5761176a611609565b5b828206905092915050565b7f4e487b7100000000000000000000000000000000000000000000000000000000600052603260045260246000fd5b60006117b082611205565b91507fffffffffffffffffffffffffffffffffffffffffffffffffffffffffffffffff82036117e2576117e1611385565b5b600182019050919050565b600060608201905061180260008301866111db565b61180f60208301856111db565b61181c604083018461120f565b94935050505056fea264697066735822122031653fe73bebda8210c783e6803ecd0b1163661d3af47a0b32849de7dd16cac064736f6c63430008110033",
  "linkReferences": {},
  "deployedLinkReferences": {}
}