{
  "_format": "hh-sol-artifact-1",
  "contractName": "Cryptic",
  "sourceName": "contracts/Cryptic.sol",
  "abi": [
    {
      "inputs": [
        {
          "internalType": "address",
          "name": "_contractAddress",
          "type": "address"
        },
        {
          "internalType": "uint256",
          "name": "_totalTicekts",
          "type": "uint256"
        },
        {
          "internalType": "uint256",
          "name": "_ticketPrice",
          "type": "uint256"
        }
      ],
      "stateMutability": "nonpayable",
      "type": "constructor"
    },
    {
      "inputs": [],
      "name": "AllTicketsSold",
      "type": "error"
    },
    {
      "inputs": [
        {
          "internalType": "uint256",
          "name": "maxTixkets",
          "type": "uint256"
        },
        {
          "internalType": "uint256",
          "name": "availableTickets",
          "type": "uint256"
        },
        {
          "internalType": "uint256",
          "name": "orderedTickets",
          "type": "uint256"
        }
      ],
      "name": "ExceedingMaxTickets",
      "type": "error"
    },
    {
      "inputs": [
        {
          "internalType": "uint256",
          "name": "totalTickets",
          "type": "uint256"
        },
        {
          "internalType": "uint256",
          "name": "ticketsSold",
          "type": "uint256"
        }
      ],
      "name": "NotAllTicketsAreSold",
      "type": "error"
    },
    {
      "inputs": [
        {
          "internalType": "uint256",
          "name": "atomsNeededToBuy",
          "type": "uint256"
        },
        {
          "internalType": "uint256",
          "name": "AllowedAtoms",
          "type": "uint256"
        }
      ],
      "name": "NotAllowedToBuyTicketsPleaseAllowMeToUseAtoms",
      "type": "error"
    },
    {
      "inputs": [],
      "name": "YouAreNotOwner",
      "type": "error"
    },
    {
      "anonymous": false,
      "inputs": [],
      "name": "AllTicketsAreSold",
      "type": "event"
    },
    {
      "anonymous": false,
      "inputs": [
        {
          "indexed": false,
          "internalType": "address",
          "name": "player",
          "type": "address"
        },
        {
          "indexed": false,
          "internalType": "uint256",
          "name": "ticketId",
          "type": "uint256"
        }
      ],
      "name": "TicketSold",
      "type": "event"
    },
    {
      "inputs": [],
      "name": "AwardWinner",
      "outputs": [],
      "stateMutability": "nonpayable",
      "type": "function"
    },
    {
      "inputs": [
        {
          "internalType": "uint16",
          "name": "_tickets",
          "type": "uint16"
        }
      ],
      "name": "BuyTickets",
      "outputs": [],
      "stateMutability": "nonpayable",
      "type": "function"
    },
    {
      "inputs": [],
      "name": "GetOwner",
      "outputs": [
        {
          "internalType": "address",
          "name": "",
          "type": "address"
        }
      ],
      "stateMutability": "view",
      "type": "function"
    },
    {
      "inputs": [],
      "name": "GetPlayersCount",
      "outputs": [
        {
          "internalType": "uint256",
          "name": "",
          "type": "uint256"
        }
      ],
      "stateMutability": "view",
      "type": "function"
    },
    {
      "inputs": [],
      "name": "GetPrice",
      "outputs": [
        {
          "internalType": "uint256",
          "name": "",
          "type": "uint256"
        }
      ],
      "stateMutability": "view",
      "type": "function"
    },
    {
      "inputs": [],
      "name": "GetTotalTickets",
      "outputs": [
        {
          "internalType": "uint256",
          "name": "",
          "type": "uint256"
        }
      ],
      "stateMutability": "view",
      "type": "function"
    },
    {
      "inputs": [],
      "name": "GetWinners",
      "outputs": [
        {
          "internalType": "address[]",
          "name": "",
          "type": "address[]"
        }
      ],
      "stateMutability": "view",
      "type": "function"
    },
    {
      "inputs": [],
      "name": "TicketsSold",
      "outputs": [
        {
          "internalType": "uint256",
          "name": "",
          "type": "uint256"
        }
      ],
      "stateMutability": "view",
      "type": "function"
    }
  ],
  "bytecode": "0x6101006040523480156200001257600080fd5b506040516200197b3803806200197b833981810160405281019062000038919062000166565b8273ffffffffffffffffffffffffffffffffffffffff1660808173ffffffffffffffffffffffffffffffffffffffff16815250503373ffffffffffffffffffffffffffffffffffffffff1660a08173ffffffffffffffffffffffffffffffffffffffff16815250508160c081815250508060e081815250506001600081905550505050620001c2565b600080fd5b600073ffffffffffffffffffffffffffffffffffffffff82169050919050565b6000620000f382620000c6565b9050919050565b6200010581620000e6565b81146200011157600080fd5b50565b6000815190506200012581620000fa565b92915050565b6000819050919050565b62000140816200012b565b81146200014c57600080fd5b50565b600081519050620001608162000135565b92915050565b600080600060608486031215620001825762000181620000c1565b5b6000620001928682870162000114565b9350506020620001a5868287016200014f565b9250506040620001b8868287016200014f565b9150509250925092565b60805160a05160c05160e0516116ec6200028f600039600081816102eb01528181610347015281816105700152818161082c015281816108700152610e3b0152600081816102160152818161023f015281816102b10152818161030c01528181610368015281816105980152818161064c015281816106a8015281816106ed0152818161071301528181610d9e0152610f8501526000818161016b01528181610191015261047a01526000818161039f0152818161043e015281816107890152610dfa01526116ec6000f3fe608060405234801561001057600080fd5b50600436106100885760003560e01c8063d214326f1161005b578063d214326f146100f1578063e639dd551461010f578063eec3ed2b1461012b578063fc706a3c1461014957610088565b80630ae50a391461008d5780630bc4b172146100ab5780636d90164e146100b5578063705f8484146100d3575b600080fd5b610095610167565b6040516100a2919061107c565b60405180910390f35b6100b361018f565b005b6100bd61056c565b6040516100ca91906110b0565b60405180910390f35b6100db610594565b6040516100e891906110b0565b60405180910390f35b6100f96105bc565b6040516101069190611189565b60405180910390f35b610129600480360381019061012491906111ea565b61064a565b005b610133610a2e565b60405161014091906110b0565b60405180910390f35b610151610a3b565b60405161015e91906110b0565b60405180910390f35b60007f0000000000000000000000000000000000000000000000000000000000000000905090565b7f000000000000000000000000000000000000000000000000000000000000000073ffffffffffffffffffffffffffffffffffffffff163373ffffffffffffffffffffffffffffffffffffffff1614610214576040517fd57632ce00000000000000000000000000000000000000000000000000000000815260040160405180910390fd5b7f0000000000000000000000000000000000000000000000000000000000000000600054116102aa577f0000000000000000000000000000000000000000000000000000000000000000600160005461026d9190611246565b6040517ffcfed8e30000000000000000000000000000000000000000000000000000000081526004016102a192919061127a565b60405180910390fd5b60006102d57f0000000000000000000000000000000000000000000000000000000000000000610a51565b905060006102e282610a9f565b905060006103b67f00000000000000000000000000000000000000000000000000000000000000007f000000000000000000000000000000000000000000000000000000000000000061033591906112a3565b61033f91906112a3565b9050600060327f00000000000000000000000000000000000000000000000000000000000000007f000000000000000000000000000000000000000000000000000000000000000061039191906112a3565b61039b91906112a3565b90507f000000000000000000000000000000000000000000000000000000000000000073ffffffffffffffffffffffffffffffffffffffff1663a9059cbb84846040518363ffffffff1660e01b81526004016103f89291906112e5565b6020604051808303816000875af1158015610417573d6000803e3d6000fd5b505050506040513d601f19601f8201168201806040525081019061043b9190611346565b507f000000000000000000000000000000000000000000000000000000000000000073ffffffffffffffffffffffffffffffffffffffff1663a9059cbb7f0000000000000000000000000000000000000000000000000000000000000000836040518363ffffffff1660e01b81526004016104b79291906112e5565b6020604051808303816000875af11580156104d6573d6000803e3d6000fd5b505050506040513d601f19601f820116820180604052508101906104fa9190611346565b506003839080600181540180825580915050600190039060005260206000200160009091909190916101000a81548173ffffffffffffffffffffffffffffffffffffffff021916908373ffffffffffffffffffffffffffffffffffffffff160217905550610566610c73565b50505050565b60007f0000000000000000000000000000000000000000000000000000000000000000905090565b60007f0000000000000000000000000000000000000000000000000000000000000000905090565b6060600380548060200260200160405190810160405280929190818152602001828054801561064057602002820191906000526020600020905b8160009054906101000a900473ffffffffffffffffffffffffffffffffffffffff1673ffffffffffffffffffffffffffffffffffffffff16815260200190600101908083116105f6575b5050505050905090565b7f000000000000000000000000000000000000000000000000000000000000000060005411156106a6576040517fe48e5abe00000000000000000000000000000000000000000000000000000000815260040160405180910390fd5b7f00000000000000000000000000000000000000000000000000000000000000008161ffff1660016000546106db9190611246565b6106e59190611373565b1115610785577f000000000000000000000000000000000000000000000000000000000000000060016000547f000000000000000000000000000000000000000000000000000000000000000061073c9190611246565b6107469190611373565b826040517f85240e6700000000000000000000000000000000000000000000000000000000815260040161077c939291906113e2565b60405180910390fd5b60007f000000000000000000000000000000000000000000000000000000000000000073ffffffffffffffffffffffffffffffffffffffff1663dd62ed3e33306040518363ffffffff1660e01b81526004016107e2929190611419565b602060405180830381865afa1580156107ff573d6000803e3d6000fd5b505050506040513d601f19601f82011682018060405250810190610823919061146e565b905060006103e87f00000000000000000000000000000000000000000000000000000000000000008461ffff1661085a91906112a3565b61086491906112a3565b9050808210156108e9577f00000000000000000000000000000000000000000000000000000000000000008361ffff1661089e91906112a3565b6103e8826108ac91906114ca565b6040517fcb6754530000000000000000000000000000000000000000000000000000000081526004016108e092919061127a565b60405180910390fd5b600160003373ffffffffffffffffffffffffffffffffffffffff1673ffffffffffffffffffffffffffffffffffffffff16815260200190815260200160002060000160009054906101000a900460ff166109fb576002339080600181540180825580915050600190039060005260206000200160009091909190916101000a81548173ffffffffffffffffffffffffffffffffffffffff021916908373ffffffffffffffffffffffffffffffffffffffff16021790555060018060003373ffffffffffffffffffffffffffffffffffffffff1673ffffffffffffffffffffffffffffffffffffffff16815260200190815260200160002060000160006101000a81548160ff0219169083151502179055505b60005b8361ffff168160ff161015610a2857610a15610d9c565b8080610a2090611508565b9150506109fe565b50505050565b6000600280549050905090565b60006001600054610a4c9190611246565b905090565b6000600182424433604051602001610a6b9392919061159a565b6040516020818303038152906040528051906020012060001c610a8e91906115d7565b610a989190611373565b9050919050565b6000806000905060005b600280549050811015610bde57600060028281548110610acc57610acb611608565b5b9060005260206000200160009054906101000a900473ffffffffffffffffffffffffffffffffffffffff1690506000600160008373ffffffffffffffffffffffffffffffffffffffff1673ffffffffffffffffffffffffffffffffffffffff168152602001908152602001600020600101905060005b8180549050811015610b8d5786828281548110610b6257610b61611608565b5b906000526020600020015403610b7a57829450610b8d565b8080610b8590611637565b915050610b42565b50600073ffffffffffffffffffffffffffffffffffffffff168473ffffffffffffffffffffffffffffffffffffffff1614610bc9575050610bde565b50508080610bd690611637565b915050610aa9565b50600073ffffffffffffffffffffffffffffffffffffffff168173ffffffffffffffffffffffffffffffffffffffff1603610c69576002808054905084610c2591906114ca565b81548110610c3657610c35611608565b5b9060005260206000200160009054906101000a900473ffffffffffffffffffffffffffffffffffffffff16915050610c6e565b809150505b919050565b60005b600280549050811015610d8357600060028281548110610c9957610c98611608565b5b9060005260206000200160009054906101000a900473ffffffffffffffffffffffffffffffffffffffff1690506000600160008373ffffffffffffffffffffffffffffffffffffffff1673ffffffffffffffffffffffffffffffffffffffff16815260200190815260200160002060000160006101000a81548160ff021916908315150217905550600160008273ffffffffffffffffffffffffffffffffffffffff1673ffffffffffffffffffffffffffffffffffffffff1681526020019081526020016000206001016000610d6f9190610fdc565b508080610d7b90611637565b915050610c76565b5060026000610d929190610ffd565b6001600081905550565b7f00000000000000000000000000000000000000000000000000000000000000006000541115610df8576040517fe48e5abe00000000000000000000000000000000000000000000000000000000815260040160405180910390fd5b7f000000000000000000000000000000000000000000000000000000000000000073ffffffffffffffffffffffffffffffffffffffff166323b872dd33306103e87f0000000000000000000000000000000000000000000000000000000000000000610e6491906112a3565b6040518463ffffffff1660e01b8152600401610e829392919061167f565b6020604051808303816000875af1158015610ea1573d6000803e3d6000fd5b505050506040513d601f19601f82011682018060405250810190610ec59190611346565b50600160003373ffffffffffffffffffffffffffffffffffffffff1673ffffffffffffffffffffffffffffffffffffffff16815260200190815260200160002060010160005490806001815401808255809150506001900390600052602060002001600090919091909150557f8ef92257fbc070823c8bb4051ff3a58b831946d893fbb1bfd9bc77b87ff77d0933600054604051610f649291906112e5565b60405180910390a1600080815480929190610f7e90611637565b91905055507f00000000000000000000000000000000000000000000000000000000000000006000541115610fda577f9e70eb2d00fb4b5c0ab01df2bbdabc72dd54cfd074f847021dacfdc98c3ccf9960405160405180910390a15b565b5080546000825590600052602060002090810190610ffa919061101e565b50565b508054600082559060005260206000209081019061101b919061101e565b50565b5b8082111561103757600081600090555060010161101f565b5090565b600073ffffffffffffffffffffffffffffffffffffffff82169050919050565b60006110668261103b565b9050919050565b6110768161105b565b82525050565b6000602082019050611091600083018461106d565b92915050565b6000819050919050565b6110aa81611097565b82525050565b60006020820190506110c560008301846110a1565b92915050565b600081519050919050565b600082825260208201905092915050565b6000819050602082019050919050565b6111008161105b565b82525050565b600061111283836110f7565b60208301905092915050565b6000602082019050919050565b6000611136826110cb565b61114081856110d6565b935061114b836110e7565b8060005b8381101561117c5781516111638882611106565b975061116e8361111e565b92505060018101905061114f565b5085935050505092915050565b600060208201905081810360008301526111a3818461112b565b905092915050565b600080fd5b600061ffff82169050919050565b6111c7816111b0565b81146111d257600080fd5b50565b6000813590506111e4816111be565b92915050565b600060208284031215611200576111ff6111ab565b5b600061120e848285016111d5565b91505092915050565b7f4e487b7100000000000000000000000000000000000000000000000000000000600052601160045260246000fd5b600061125182611097565b915061125c83611097565b925082820390508181111561127457611273611217565b5b92915050565b600060408201905061128f60008301856110a1565b61129c60208301846110a1565b9392505050565b60006112ae82611097565b91506112b983611097565b92508282026112c781611097565b915082820484148315176112de576112dd611217565b5b5092915050565b60006040820190506112fa600083018561106d565b61130760208301846110a1565b9392505050565b60008115159050919050565b6113238161130e565b811461132e57600080fd5b50565b6000815190506113408161131a565b92915050565b60006020828403121561135c5761135b6111ab565b5b600061136a84828501611331565b91505092915050565b600061137e82611097565b915061138983611097565b92508282019050808211156113a1576113a0611217565b5b92915050565b6000819050919050565b60006113cc6113c76113c2846111b0565b6113a7565b611097565b9050919050565b6113dc816113b1565b82525050565b60006060820190506113f760008301866110a1565b61140460208301856110a1565b61141160408301846113d3565b949350505050565b600060408201905061142e600083018561106d565b61143b602083018461106d565b9392505050565b61144b81611097565b811461145657600080fd5b50565b60008151905061146881611442565b92915050565b600060208284031215611484576114836111ab565b5b600061149284828501611459565b91505092915050565b7f4e487b7100000000000000000000000000000000000000000000000000000000600052601260045260246000fd5b60006114d582611097565b91506114e083611097565b9250826114f0576114ef61149b565b5b828204905092915050565b600060ff82169050919050565b6000611513826114fb565b915060ff820361152657611525611217565b5b600182019050919050565b6000819050919050565b61154c61154782611097565b611531565b82525050565b60008160601b9050919050565b600061156a82611552565b9050919050565b600061157c8261155f565b9050919050565b61159461158f8261105b565b611571565b82525050565b60006115a6828661153b565b6020820191506115b6828561153b565b6020820191506115c68284611583565b601482019150819050949350505050565b60006115e282611097565b91506115ed83611097565b9250826115fd576115fc61149b565b5b828206905092915050565b7f4e487b7100000000000000000000000000000000000000000000000000000000600052603260045260246000fd5b600061164282611097565b91507fffffffffffffffffffffffffffffffffffffffffffffffffffffffffffffffff820361167457611673611217565b5b600182019050919050565b6000606082019050611694600083018661106d565b6116a1602083018561106d565b6116ae60408301846110a1565b94935050505056fea2646970667358221220a9c76578db59b0d364cd47c3f71b3dcb6ea59365b3ca9ca9f4591edabaaafed364736f6c63430008110033",
  "linkReferences": {},
  "deployedLinkReferences": {}
}