{
  "_format": "hh-sol-artifact-1",
  "contractName": "Atom",
  "sourceName": "contracts/Atom.sol",
  "abi": [
    {
      "inputs": [
        {
          "internalType": "uint256",
          "name": "_atomPrice",
          "type": "uint256"
        }
      ],
      "stateMutability": "nonpayable",
      "type": "constructor"
    },
    {
      "inputs": [],
      "name": "AllAtomsMined",
      "type": "error"
    },
    {
      "inputs": [
        {
          "internalType": "uint256",
          "name": "balance",
          "type": "uint256"
        },
        {
          "internalType": "uint256",
          "name": "value",
          "type": "uint256"
        }
      ],
      "name": "InsufficientFunds",
      "type": "error"
    },
    {
      "inputs": [
        {
          "internalType": "uint256",
          "name": "approvedAmount",
          "type": "uint256"
        },
        {
          "internalType": "uint256",
          "name": "value",
          "type": "uint256"
        }
      ],
      "name": "NeedApproval",
      "type": "error"
    },
    {
      "inputs": [],
      "name": "NullAddress",
      "type": "error"
    },
    {
      "anonymous": false,
      "inputs": [
        {
          "indexed": true,
          "internalType": "address",
          "name": "_owner",
          "type": "address"
        },
        {
          "indexed": true,
          "internalType": "address",
          "name": "_spender",
          "type": "address"
        },
        {
          "indexed": false,
          "internalType": "uint256",
          "name": "_value",
          "type": "uint256"
        }
      ],
      "name": "Approval",
      "type": "event"
    },
    {
      "anonymous": false,
      "inputs": [
        {
          "indexed": true,
          "internalType": "address",
          "name": "_from",
          "type": "address"
        },
        {
          "indexed": true,
          "internalType": "address",
          "name": "_to",
          "type": "address"
        },
        {
          "indexed": false,
          "internalType": "uint256",
          "name": "_value",
          "type": "uint256"
        }
      ],
      "name": "Transfer",
      "type": "event"
    },
    {
      "inputs": [],
      "name": "MinedElectrons",
      "outputs": [
        {
          "internalType": "uint256",
          "name": "",
          "type": "uint256"
        }
      ],
      "stateMutability": "view",
      "type": "function"
    },
    {
      "inputs": [
        {
          "internalType": "address",
          "name": "_owner",
          "type": "address"
        },
        {
          "internalType": "address",
          "name": "_spender",
          "type": "address"
        }
      ],
      "name": "allowance",
      "outputs": [
        {
          "internalType": "uint256",
          "name": "",
          "type": "uint256"
        }
      ],
      "stateMutability": "view",
      "type": "function"
    },
    {
      "inputs": [
        {
          "internalType": "address",
          "name": "_spender",
          "type": "address"
        },
        {
          "internalType": "uint256",
          "name": "_value",
          "type": "uint256"
        }
      ],
      "name": "approve",
      "outputs": [
        {
          "internalType": "bool",
          "name": "",
          "type": "bool"
        }
      ],
      "stateMutability": "nonpayable",
      "type": "function"
    },
    {
      "inputs": [],
      "name": "atomPrice",
      "outputs": [
        {
          "internalType": "uint256",
          "name": "",
          "type": "uint256"
        }
      ],
      "stateMutability": "view",
      "type": "function"
    },
    {
      "inputs": [
        {
          "internalType": "address",
          "name": "_owner",
          "type": "address"
        }
      ],
      "name": "balanceOf",
      "outputs": [
        {
          "internalType": "uint256",
          "name": "",
          "type": "uint256"
        }
      ],
      "stateMutability": "view",
      "type": "function"
    },
    {
      "inputs": [
        {
          "internalType": "uint256",
          "name": "_value",
          "type": "uint256"
        }
      ],
      "name": "burnElectrons",
      "outputs": [
        {
          "internalType": "bool",
          "name": "",
          "type": "bool"
        }
      ],
      "stateMutability": "nonpayable",
      "type": "function"
    },
    {
      "inputs": [],
      "name": "decimals",
      "outputs": [
        {
          "internalType": "uint8",
          "name": "",
          "type": "uint8"
        }
      ],
      "stateMutability": "view",
      "type": "function"
    },
    {
      "inputs": [],
      "name": "electronPrice",
      "outputs": [
        {
          "internalType": "uint256",
          "name": "",
          "type": "uint256"
        }
      ],
      "stateMutability": "view",
      "type": "function"
    },
    {
      "inputs": [],
      "name": "mintAtoms",
      "outputs": [
        {
          "internalType": "bool",
          "name": "",
          "type": "bool"
        }
      ],
      "stateMutability": "payable",
      "type": "function"
    },
    {
      "inputs": [],
      "name": "name",
      "outputs": [
        {
          "internalType": "string",
          "name": "",
          "type": "string"
        }
      ],
      "stateMutability": "view",
      "type": "function"
    },
    {
      "inputs": [],
      "name": "symbol",
      "outputs": [
        {
          "internalType": "string",
          "name": "",
          "type": "string"
        }
      ],
      "stateMutability": "view",
      "type": "function"
    },
    {
      "inputs": [],
      "name": "totalSupply",
      "outputs": [
        {
          "internalType": "uint256",
          "name": "",
          "type": "uint256"
        }
      ],
      "stateMutability": "view",
      "type": "function"
    },
    {
      "inputs": [
        {
          "internalType": "address",
          "name": "_to",
          "type": "address"
        },
        {
          "internalType": "uint256",
          "name": "_value",
          "type": "uint256"
        }
      ],
      "name": "transfer",
      "outputs": [
        {
          "internalType": "bool",
          "name": "",
          "type": "bool"
        }
      ],
      "stateMutability": "nonpayable",
      "type": "function"
    },
    {
      "inputs": [
        {
          "internalType": "address",
          "name": "_from",
          "type": "address"
        },
        {
          "internalType": "address",
          "name": "_to",
          "type": "address"
        },
        {
          "internalType": "uint256",
          "name": "_value",
          "type": "uint256"
        }
      ],
      "name": "transferFrom",
      "outputs": [
        {
          "internalType": "bool",
          "name": "",
          "type": "bool"
        }
      ],
      "stateMutability": "nonpayable",
      "type": "function"
    }
  ],
  "bytecode": "0x60806040523480156200001157600080fd5b5060405162001b8238038062001b82833981810160405281019062000037919062000157565b6040518060400160405280600281526020017f414d000000000000000000000000000000000000000000000000000000000000815250600190816200007d9190620003f9565b506040518060400160405280600481526020017f41746f6d0000000000000000000000000000000000000000000000000000000081525060009081620000c49190620003f9565b506003600260006101000a81548160ff021916908360ff160217905550629896806003819055506000600881905550806004819055506103e8816200010a91906200050f565b6005819055505062000547565b600080fd5b6000819050919050565b62000131816200011c565b81146200013d57600080fd5b50565b600081519050620001518162000126565b92915050565b60006020828403121562000170576200016f62000117565b5b6000620001808482850162000140565b91505092915050565b600081519050919050565b7f4e487b7100000000000000000000000000000000000000000000000000000000600052604160045260246000fd5b7f4e487b7100000000000000000000000000000000000000000000000000000000600052602260045260246000fd5b600060028204905060018216806200020b57607f821691505b602082108103620002215762000220620001c3565b5b50919050565b60008190508160005260206000209050919050565b60006020601f8301049050919050565b600082821b905092915050565b6000600883026200028b7fffffffffffffffffffffffffffffffffffffffffffffffffffffffffffffffff826200024c565b6200029786836200024c565b95508019841693508086168417925050509392505050565b6000819050919050565b6000620002da620002d4620002ce846200011c565b620002af565b6200011c565b9050919050565b6000819050919050565b620002f683620002b9565b6200030e6200030582620002e1565b84845462000259565b825550505050565b600090565b6200032562000316565b62000332818484620002eb565b505050565b5b818110156200035a576200034e6000826200031b565b60018101905062000338565b5050565b601f821115620003a957620003738162000227565b6200037e846200023c565b810160208510156200038e578190505b620003a66200039d856200023c565b83018262000337565b50505b505050565b600082821c905092915050565b6000620003ce60001984600802620003ae565b1980831691505092915050565b6000620003e98383620003bb565b9150826002028217905092915050565b620004048262000189565b67ffffffffffffffff81111562000420576200041f62000194565b5b6200042c8254620001f2565b620004398282856200035e565b600060209050601f8311600181146200047157600084156200045c578287015190505b620004688582620003db565b865550620004d8565b601f198416620004818662000227565b60005b82811015620004ab5784890151825560018201915060208501945060208101905062000484565b86831015620004cb5784890151620004c7601f891682620003bb565b8355505b6001600288020188555050505b505050505050565b7f4e487b7100000000000000000000000000000000000000000000000000000000600052601260045260246000fd5b60006200051c826200011c565b915062000529836200011c565b9250826200053c576200053b620004e0565b5b828204905092915050565b61162b80620005576000396000f3fe6080604052600436106100dc5760003560e01c806395d89b411161007f578063cd9948f811610059578063cd9948f8146102e9578063dd62ed3e14610314578063f96b2e3914610351578063fc23b8ac1461037c576100dc565b806395d89b41146102565780639948553b14610281578063a9059cbb146102ac576100dc565b806318160ddd116100bb57806318160ddd1461018657806323b872dd146101b1578063313ce567146101ee57806370a0823114610219576100dc565b806291e4ce146100e157806306fdde031461011e578063095ea7b314610149575b600080fd5b3480156100ed57600080fd5b5061010860048036038101906101039190611119565b61039a565b6040516101159190611161565b60405180910390f35b34801561012a57600080fd5b50610133610558565b604051610140919061120c565b60405180910390f35b34801561015557600080fd5b50610170600480360381019061016b919061128c565b6105ea565b60405161017d9190611161565b60405180910390f35b34801561019257600080fd5b5061019b6107a2565b6040516101a891906112db565b60405180910390f35b3480156101bd57600080fd5b506101d860048036038101906101d391906112f6565b6107ac565b6040516101e59190611161565b60405180910390f35b3480156101fa57600080fd5b50610203610bc7565b6040516102109190611365565b60405180910390f35b34801561022557600080fd5b50610240600480360381019061023b9190611380565b610bde565b60405161024d91906112db565b60405180910390f35b34801561026257600080fd5b5061026b610c27565b604051610278919061120c565b60405180910390f35b34801561028d57600080fd5b50610296610cb9565b6040516102a391906112db565b60405180910390f35b3480156102b857600080fd5b506102d360048036038101906102ce919061128c565b610cc3565b6040516102e09190611161565b60405180910390f35b3480156102f557600080fd5b506102fe610f0b565b60405161030b91906112db565b60405180910390f35b34801561032057600080fd5b5061033b600480360381019061033691906113ad565b610f15565b60405161034891906112db565b60405180910390f35b34801561035d57600080fd5b50610366610f9c565b60405161037391906112db565b60405180910390f35b610384610fa6565b6040516103919190611161565b60405180910390f35b6000600660003373ffffffffffffffffffffffffffffffffffffffff1673ffffffffffffffffffffffffffffffffffffffff1681526020019081526020016000205482111561046157600660003373ffffffffffffffffffffffffffffffffffffffff1673ffffffffffffffffffffffffffffffffffffffff16815260200190815260200160002054826040517f03eb8b540000000000000000000000000000000000000000000000000000000081526004016104589291906113ed565b60405180910390fd5b81600860008282546104739190611445565b9250508190555081600660003373ffffffffffffffffffffffffffffffffffffffff1673ffffffffffffffffffffffffffffffffffffffff16815260200190815260200160002060008282546104c99190611445565b925050819055506000600554836104e09190611479565b905060003373ffffffffffffffffffffffffffffffffffffffff1682604051610508906114ec565b60006040518083038185875af1925050503d8060008114610545576040519150601f19603f3d011682016040523d82523d6000602084013e61054a565b606091505b505090508092505050919050565b60606000805461056790611530565b80601f016020809104026020016040519081016040528092919081815260200182805461059390611530565b80156105e05780601f106105b5576101008083540402835291602001916105e0565b820191906000526020600020905b8154815290600101906020018083116105c357829003601f168201915b5050505050905090565b60008073ffffffffffffffffffffffffffffffffffffffff168373ffffffffffffffffffffffffffffffffffffffff160361062457600080fd5b81600760003373ffffffffffffffffffffffffffffffffffffffff1673ffffffffffffffffffffffffffffffffffffffff16815260200190815260200160002060008573ffffffffffffffffffffffffffffffffffffffff1673ffffffffffffffffffffffffffffffffffffffff16815260200190815260200160002060008282546106b09190611561565b925050819055508273ffffffffffffffffffffffffffffffffffffffff163373ffffffffffffffffffffffffffffffffffffffff167f8c5be1e5ebec7d5bd14f71427d1e84f3dd0314c0f7b2291e5b200ac8c7c3b925600760003373ffffffffffffffffffffffffffffffffffffffff1673ffffffffffffffffffffffffffffffffffffffff16815260200190815260200160002060008773ffffffffffffffffffffffffffffffffffffffff1673ffffffffffffffffffffffffffffffffffffffff1681526020019081526020016000205460405161079091906112db565b60405180910390a36001905092915050565b6000600354905090565b6000600660008573ffffffffffffffffffffffffffffffffffffffff1673ffffffffffffffffffffffffffffffffffffffff1681526020019081526020016000205482111561087357600660008573ffffffffffffffffffffffffffffffffffffffff1673ffffffffffffffffffffffffffffffffffffffff16815260200190815260200160002054826040517f03eb8b5400000000000000000000000000000000000000000000000000000000815260040161086a9291906113ed565b60405180910390fd5b600760008573ffffffffffffffffffffffffffffffffffffffff1673ffffffffffffffffffffffffffffffffffffffff16815260200190815260200160002060003373ffffffffffffffffffffffffffffffffffffffff1673ffffffffffffffffffffffffffffffffffffffff168152602001908152602001600020548211156109b257600760008573ffffffffffffffffffffffffffffffffffffffff1673ffffffffffffffffffffffffffffffffffffffff16815260200190815260200160002060003373ffffffffffffffffffffffffffffffffffffffff1673ffffffffffffffffffffffffffffffffffffffff16815260200190815260200160002054826040517f615502eb0000000000000000000000000000000000000000000000000000000081526004016109a99291906113ed565b60405180910390fd5b600073ffffffffffffffffffffffffffffffffffffffff168373ffffffffffffffffffffffffffffffffffffffff1603610a18576040517fe99d5ac500000000000000000000000000000000000000000000000000000000815260040160405180910390fd5b81600660008673ffffffffffffffffffffffffffffffffffffffff1673ffffffffffffffffffffffffffffffffffffffff1681526020019081526020016000206000828254610a679190611445565b9250508190555081600660008573ffffffffffffffffffffffffffffffffffffffff1673ffffffffffffffffffffffffffffffffffffffff1681526020019081526020016000206000828254610abd9190611561565b9250508190555081600760008673ffffffffffffffffffffffffffffffffffffffff1673ffffffffffffffffffffffffffffffffffffffff16815260200190815260200160002060003373ffffffffffffffffffffffffffffffffffffffff1673ffffffffffffffffffffffffffffffffffffffff1681526020019081526020016000206000828254610b509190611445565b925050819055508273ffffffffffffffffffffffffffffffffffffffff168473ffffffffffffffffffffffffffffffffffffffff167fddf252ad1be2c89b69c2b068fc378daa952ba7f163c4a11628f55a4df523b3ef84604051610bb491906112db565b60405180910390a3600190509392505050565b6000600260009054906101000a900460ff16905090565b6000600660008373ffffffffffffffffffffffffffffffffffffffff1673ffffffffffffffffffffffffffffffffffffffff168152602001908152602001600020549050919050565b606060018054610c3690611530565b80601f0160208091040260200160405190810160405280929190818152602001828054610c6290611530565b8015610caf5780601f10610c8457610100808354040283529160200191610caf565b820191906000526020600020905b815481529060010190602001808311610c9257829003601f168201915b5050505050905090565b6000600454905090565b6000600660003373ffffffffffffffffffffffffffffffffffffffff1673ffffffffffffffffffffffffffffffffffffffff16815260200190815260200160002054821115610d8a57600660003373ffffffffffffffffffffffffffffffffffffffff1673ffffffffffffffffffffffffffffffffffffffff16815260200190815260200160002054826040517f03eb8b54000000000000000000000000000000000000000000000000000000008152600401610d819291906113ed565b60405180910390fd5b600073ffffffffffffffffffffffffffffffffffffffff168373ffffffffffffffffffffffffffffffffffffffff1603610df0576040517fe99d5ac500000000000000000000000000000000000000000000000000000000815260040160405180910390fd5b81600660003373ffffffffffffffffffffffffffffffffffffffff1673ffffffffffffffffffffffffffffffffffffffff1681526020019081526020016000206000828254610e3f9190611445565b9250508190555081600660008573ffffffffffffffffffffffffffffffffffffffff1673ffffffffffffffffffffffffffffffffffffffff1681526020019081526020016000206000828254610e959190611561565b925050819055508273ffffffffffffffffffffffffffffffffffffffff163373ffffffffffffffffffffffffffffffffffffffff167fddf252ad1be2c89b69c2b068fc378daa952ba7f163c4a11628f55a4df523b3ef84604051610ef991906112db565b60405180910390a36001905092915050565b6000600554905090565b6000600760008473ffffffffffffffffffffffffffffffffffffffff1673ffffffffffffffffffffffffffffffffffffffff16815260200190815260200160002060008373ffffffffffffffffffffffffffffffffffffffff1673ffffffffffffffffffffffffffffffffffffffff16815260200190815260200160002054905092915050565b6000600854905090565b60008060055434610fb791906115c4565b905060035481600854610fca9190611561565b1115611002576040517ff200e94700000000000000000000000000000000000000000000000000000000815260040160405180910390fd5b80600660003373ffffffffffffffffffffffffffffffffffffffff1673ffffffffffffffffffffffffffffffffffffffff16815260200190815260200160002060008282546110519190611561565b92505081905550806008600082825461106a9190611561565b925050819055503373ffffffffffffffffffffffffffffffffffffffff163073ffffffffffffffffffffffffffffffffffffffff167fddf252ad1be2c89b69c2b068fc378daa952ba7f163c4a11628f55a4df523b3ef836040516110ce91906112db565b60405180910390a3600191505090565b600080fd5b6000819050919050565b6110f6816110e3565b811461110157600080fd5b50565b600081359050611113816110ed565b92915050565b60006020828403121561112f5761112e6110de565b5b600061113d84828501611104565b91505092915050565b60008115159050919050565b61115b81611146565b82525050565b60006020820190506111766000830184611152565b92915050565b600081519050919050565b600082825260208201905092915050565b60005b838110156111b657808201518184015260208101905061119b565b60008484015250505050565b6000601f19601f8301169050919050565b60006111de8261117c565b6111e88185611187565b93506111f8818560208601611198565b611201816111c2565b840191505092915050565b6000602082019050818103600083015261122681846111d3565b905092915050565b600073ffffffffffffffffffffffffffffffffffffffff82169050919050565b60006112598261122e565b9050919050565b6112698161124e565b811461127457600080fd5b50565b60008135905061128681611260565b92915050565b600080604083850312156112a3576112a26110de565b5b60006112b185828601611277565b92505060206112c285828601611104565b9150509250929050565b6112d5816110e3565b82525050565b60006020820190506112f060008301846112cc565b92915050565b60008060006060848603121561130f5761130e6110de565b5b600061131d86828701611277565b935050602061132e86828701611277565b925050604061133f86828701611104565b9150509250925092565b600060ff82169050919050565b61135f81611349565b82525050565b600060208201905061137a6000830184611356565b92915050565b600060208284031215611396576113956110de565b5b60006113a484828501611277565b91505092915050565b600080604083850312156113c4576113c36110de565b5b60006113d285828601611277565b92505060206113e385828601611277565b9150509250929050565b600060408201905061140260008301856112cc565b61140f60208301846112cc565b9392505050565b7f4e487b7100000000000000000000000000000000000000000000000000000000600052601160045260246000fd5b6000611450826110e3565b915061145b836110e3565b925082820390508181111561147357611472611416565b5b92915050565b6000611484826110e3565b915061148f836110e3565b925082820261149d816110e3565b915082820484148315176114b4576114b3611416565b5b5092915050565b600081905092915050565b50565b60006114d66000836114bb565b91506114e1826114c6565b600082019050919050565b60006114f7826114c9565b9150819050919050565b7f4e487b7100000000000000000000000000000000000000000000000000000000600052602260045260246000fd5b6000600282049050600182168061154857607f821691505b60208210810361155b5761155a611501565b5b50919050565b600061156c826110e3565b9150611577836110e3565b925082820190508082111561158f5761158e611416565b5b92915050565b7f4e487b7100000000000000000000000000000000000000000000000000000000600052601260045260246000fd5b60006115cf826110e3565b91506115da836110e3565b9250826115ea576115e9611595565b5b82820490509291505056fea2646970667358221220abc58ee5c90f9ebbd44a4d42d097f4e3cda0dc54717587982fa4b0f5d1f3796164736f6c63430008110033",
  "linkReferences": {},
  "deployedLinkReferences": {}
}